:020000040000FA
:100000000A128A111228FF3FFE00030E8312031307
:10001000BA000408BB000A08BC007F08BD000A162D
:100020008A15C62E0A128A1115288317D730FD00AB
:100030001C30FE007A30FF00CD3084000A168A158D
:10004000EA240A128A1183135930FD001C30FE0085
:100050001130FF00523084000A168A15EA240A1271
:100060008A11831790308400BD300A168A15202427
:100070000A128A1183160313EE01EF0183133E3037
:10008000840052300A168A1520240A128A1183012C
:100090000A168A15672C8316031331088039FF006E
:1000A0007F08BB003108B6003607FF007F08C1009B
:1000B000B01F5B285C285D284114410803196128A2
:1000C00062287128410A031D662867286F280030BE
:1000D000B1000030B0000030AF000030AE00B0170B
:1000E00079280030B1000030B0000030AF0000309F
:1000F000AE0035088039FF007F08BB063508B60022
:100100003607FF007F08BC00B41F8728882889288D
:100110003C143C0803198D288E289D283C0A031D99
:10012000922893289B280030B5000030B40000309E
:10013000B3000030B200B417A5280030B50000307D
:10014000B4000030B3000030B2003C080319A92805
:10015000AA28AF284108031DAE28AF28B8280030D0
:10016000B1000030B0000030AF000030AE00AB2B6B
:100170002E08FF007F08A00034080A168A1567269B
:100180000A128A11831603132108C7002008C6002B
:100190004608B600B701B801B9013908C0003808EF
:1001A000BF003708BE003608BD004708B600B701DB
:1001B000B801B9013908C5003808C4003708C300C0
:1001C0003608C2002F08FF007F08A00033080A1677
:1001D0008A1567260A128A11831603132108C7009D
:1001E0002008C6004608B600B701B801B9013608B4
:1001F000BD07370803110318013E03190029BE0784
:10020000380803110318013E03190729BF073908ED
:1002100003110318013E03190E29C0074708B60051
:10022000B701B801B9013608C2073708031103182E
:10023000013E03191C29C307380803110318013EA6
:1002400003192329C407390803110318013E0319B0
:100250002A29C5073008FF007F08A00032080A16C7
:100260008A1567260A128A11831603132108C7000C
:100270002008C6004608B600B701B801B901360823
:10028000BD07370803110318013E03194829BE07AB
:10029000380803110318013E03194F29BF07390815
:1002A00003110318013E03195629C0074708B60079
:1002B000B701B801B9013608C2073708031103189E
:1002C000013E03196429C307380803110318013ECE
:1002D00003196B29C407390803110318013E0319D8
:1002E0007229C5070830B6000310BD0DBE0DBF0D45
:1002F000C00DB60B74292F08FF007F08A00032083C
:100300000A168A1567260A128A1183160313210812
:10031000C7002008C6004608B6004708B700B80165
:10032000B9013608BD07370803110318013E031948
:100330009A29BE07380803110318013E0319A129A1
:10034000BF07390803110318013E0319A829C00784
:100350002E08FF007F08A00033080A168A156726BA
:100360000A128A11831603132108C7002008C60049
:100370004608B6004708B700B801B9013608BD07FE
:10038000370803110318013E0319C729BE073808AF
:1003900003110318013E0319CE29BF0739080311C1
:1003A0000318013E0319D529C0070830B600031011
:1003B000BD0DBE0DBF0DC00DB60BD7292E08FF0019
:1003C0007F08A00032080A168A1567260A128A11C9
:1003D000831603132108C7002008C6004608B6008C
:1003E0004708B700B801B9013608BD07370803113F
:1003F0000318013E0319FD29BE073808031103182D
:10040000013E0319042ABF07390803110318013EEE
:1004100003190B2AC0072F08FF007F08A00034082B
:100420000A168A1567260A128A11831603132108F1
:10043000C7002008C6004608B6004708B700B80144
:10044000B9013608C207370803110318013E031922
:100450002A2AC307380803110318013E0319312A59
:10046000C407390803110318013E0319382AC507C8
:100470003008FF007F08A00033080A168A15672697
:100480000A128A11831603132108C7002008C60028
:100490004608B6004708B700B801B9013608C207D8
:1004A000370803110318013E0319572AC3073808F8
:1004B00003110318013E03195E2AC407390803110A
:1004C0000318013E0319652AC5073008FF007F089D
:1004D000A00034080A168A1567260A128A118316A4
:1004E00003132108C7002008C6004608B6004708C5
:1004F000B700B801B90108300310B60DB70DB80D3B
:10050000B90DFF3E031D7C2A3608C20737080311C8
:100510000318013E03198D2AC30738080311031875
:10052000013E0319942AC407390803110318013E38
:1005300003199B2AC5073D08B6003E08B7003F08CF
:10054000B8004008B90018300310B90CB80CB70C4B
:10055000B60CFF3E031DA42A3608C2073708031154
:100560000318013E0319B52AC307380803110318FD
:10057000013E0319BC2AC407390803110318013EC0
:100580000319C32AC5070830B6000310BD0DBE0D00
:10059000BF0DC00DB60BC52A41083C07B600B70118
:1005A000B70D3608823EC60037080318013EFF3EED
:1005B000C700F72A0130B6000310C20DC30DC40DE9
:1005C000C50DB60BDC2AC01FE62AE72AE82A42142A
:1005D0000130B6000310BD0DBE0DBF0DC00DB60B32
:1005E000EA2AFF30C6070318C70AFF30C707C41F2F
:1005F000FA2AFB2ADA2ABC01C01FFF2A002B1C2B77
:10060000FF303D05B600FF303E05B700FF303F0527
:10061000B8007F304005B900390838043704360483
:100620000319132B142B172BBC01BC0A1C2B421CC7
:100630001A2B1B2B1C2B142B3C080319202B212BB2
:10064000522B0130C207003003180130C3070030BD
:1006500003180130C407003003180130C507451CDA
:10066000322B332B522B4208B6004308B700440804
:10067000B8004508B9000130BA00390DB90CB80C02
:10068000B70CB60CBA0B3D2B3908C5003808C400AE
:100690003708C3003608C2000130C6070318C70A6E
:1006A0000030C7074708803AFF0080307F02031DF3
:1006B0005B2BFF304602031C5E2B5F2B6A2B7F30C7
:1006C00083160313C5008030C4000030C30000301F
:1006D000C2009F2B831603134708803AFF00803027
:1006E0007F02031D752B013046020318782B792BEE
:1006F000852B003083160313C5000030C400003082
:10070000C3000030C200BB019F2B831603134608B1
:10071000FF007F08C100FF30C205FF30C3057F30F6
:10072000C4050030C505411C962B972B982BC41788
:100730004108B6000310360CFF007F08C5003B08D7
:10074000FF007F08C5044508B1004408B000430815
:10075000AF004208AE00080083120313230880395B
:10076000FF007F08AD002308A8002807FF007F08CE
:10077000B300A21FBC2BBD2BBE2B331433080319AF
:10078000C22BC32BD22B330A031DC72BC82BD02B54
:100790000030A3000030A2000030A1000030A00013
:1007A000A217DA2B0030A3000030A2000030A10015
:1007B0000030A00027088039FF007F08AD06270819
:1007C000A8002807FF007F08B200A61FE82BE92B2E
:1007D000EA2B321432080319EE2BEF2BFE2B320AD0
:1007E000031DF32BF42BFC2B0030A7000030A600D8
:1007F0000030A5000030A400A617062C0030A7008A
:100800000030A6000030A5000030A4003208031913
:100810000A2C0B2C102C3308031D0F2C102C192C18
:100820000030A3000030A2000030A1000030A00082
:100830000C2F2008FF007F08F00026080A168A15F2
:1008400018260A128A11710883120313B90070085E
:10085000B8003808A800A901AA01AB012B08B10013
:100860002A08B0002908AF002808AE003908A800FF
:10087000A901AA01AB012B08B7002A08B600290874
:10088000B5002808B4002108FF007F08F000250803
:100890000A168A1518260A128A1171088312031380
:1008A000B9007008B8003808A800A901AA01AB0176
:1008B0002808AE07290803110318013E0319612C0B
:1008C000AF072A0803110318013E0319682CB0076B
:1008D0002B0803110318013E03196F2CB1073908C7
:1008E000A800A901AA01AB012808B407290803112F
:1008F0000318013E03197D2CB5072A0803110318BC
:10090000013E0319842CB6072B0803110318013E7E
:1009100003198B2CB7072208FF007F08F00024087A
:100920000A168A1518260A128A11710883120313EF
:10093000B9007008B8003808A800A901AA01AB01E5
:100940002808AE07290803110318013E0319A92C32
:10095000AF072A0803110318013E0319B02CB00792
:100960002B0803110318013E0319B72CB1073908EE
:10097000A800A901AA01AB012808B407290803119E
:100980000318013E0319C52CB5072A0803110318E3
:10099000013E0319CC2CB6072B0803110318013EA6
:1009A0000319D32CB7070830A8000310AE0DAF0D04
:1009B000B00DB10DA80BD52C2108FF007F08F00069
:1009C00024080A168A1518260A128A117108831239
:1009D0000313B9007008B8003808A8003908A90046
:1009E000AA01AB012808AE07290803110318013E2C
:1009F0000319FB2CAF072A0803110318013E031942
:100A0000022DB0072B0803110318013E0319092D0D
:100A1000B1072008FF007F08F00025080A168A1594
:100A200018260A128A11710883120313B90070087C
:100A3000B8003808A8003908A900AA01AB012808A5
:100A4000AE07290803110318013E0319282DAF072B
:100A50002A0803110318013E03192F2DB0072B0894
:100A600003110318013E0319362DB1070830A80001
:100A70000310AE0DAF0DB00DB10DA80B382D200831
:100A8000FF007F08F00024080A168A1518260A12AB
:100A90008A11710883120313B9007008B80038086E
:100AA000A8003908A900AA01AB012808AE07290847
:100AB00003110318013E03195E2DAF072A08031125
:100AC0000318013E0319652DB0072B080311031805
:100AD000013E03196C2DB1072108FF007F08F000CB
:100AE00026080A168A1518260A128A117108831216
:100AF0000313B9007008B8003808A8003908A90025
:100B0000AA01AB012808B407290803110318013E04
:100B100003198B2DB5072A0803110318013E031989
:100B2000922DB6072B0803110318013E0319992DC6
:100B3000B7072208FF007F08F00025080A168A156B
:100B400018260A128A11710883120313B90070085B
:100B5000B8003808A8003908A900AA01AB01280884
:100B6000B407290803110318013E0319B82DB5076E
:100B70002A0803110318013E0319BF2DB6072B08DD
:100B800003110318013E0319C62DB7072208FF0001
:100B90007F08F00026080A168A1518260A128A11FC
:100BA000710883120313B9007008B8003808A80050
:100BB0003908A900AA01AB0108300310A80DA90D3E
:100BC000AA0DAB0DFF3E031DDD2D2808B407290833
:100BD00003110318013E0319EE2DB5072A0803116E
:100BE0000318013E0319F52DB6072B08031103184E
:100BF000013E0319FC2DB7072E08A8002F08A900F5
:100C00003008AA003108AB0018300310AB0CAA0C56
:100C1000A90CA80CFF3E031D052E2808B4072908BF
:100C200003110318013E0319162EB5072A080311F4
:100C30000318013E03191D2EB6072B0803110318D4
:100C4000013E0319242EB7070830A8000310AE0D8B
:100C5000AF0DB00DB10DA80B262E33083207A8003A
:100C6000A901A90D2808823EB80029080318013EF1
:100C7000FF3EB900582E0130A8000310B40DB50D89
:100C8000B60DB70DA80B3D2EB11F472E482E492E8D
:100C900034140130A8000310AE0DAF0DB00DB10D2E
:100CA000A80B4B2EFF30B8070318B90AFF30B9075D
:100CB000B61F5B2E5C2E3B2EB201B11F602E612E43
:100CC0007D2EFF302E05A800FF302F05A900FF3034
:100CD0003005AA007F303105AB002B082A04290417
:100CE00028040319742E752E782EB201B20A7D2EB7
:100CF000341C7B2E7C2E7D2E752E32080319812EFE
:100D0000822EB32E0130B407003003180130B5072E
:100D1000003003180130B607003003180130B70760
:100D2000371C932E942EB32E3408A8003508A90042
:100D30003608AA003708AB000130AC002B0DAB0C15
:100D4000AA0CA90CA80CAC0B9E2E2B08B7002A08E5
:100D5000B6002908B5002808B4000130B807031808
:100D6000B90A0030B9073908803AFF0080307F02A5
:100D7000031DBC2EFF303802031CBF2EC02ECB2E0D
:100D80007F3083120313B7008030B6000030B50007
:100D90000030B400002F831203133908803AFF009B
:100DA00080307F02031DD62E013038020318D92E61
:100DB000DA2EE62E003083120313B7000030B6009F
:100DC0000030B5000030B400AD01002F83120313D2
:100DD0003808FF007F08B300FF30B405FF30B505C9
:100DE0007F30B6050030B705331CF72EF82EF92EEC
:100DF000B6173308A8000310280CFF007F08B700BF
:100E00002D08FF007F08B7043708A3003608A200AA
:100E10003508A1003408A000080083160317CB0092
:100E20004B080319142F152FE02F42304B020318E3
:100E30001A2F1B2FE02F4B08C300C401C501C601A8
:100E4000460883160313A300831603174508831669
:100E50000313A20083160317440883160313A1008B
:100E600083160317430883160313A00000300A16E5
:100E70008A1144270A128A11831603132308B50026
:100E80002208B4002108B3002008B2003A30B100B3
:100E90008330B0001230AF006F30AE000A128A11FA
:100EA0004B200A128A118316031331088316031785
:100EB000CA0083160313300883160317C90083166C
:100EC00003132F0883160317C800831603132E0875
:100ED00083160317C700473083160313E9008030D9
:100EE000E8000030E7000030E600831603174A08E8
:100EF00083160313B50083160317490883160313DB
:100F0000B40083160317480883160313B30083162F
:100F10000317470883160313B2004A30B100743038
:100F2000B0002430AF000030AE000A128A114B200E
:100F30000A128A11831603133108CF003008CE003D
:100F40002F08CD002E08CC004030CB008030CA00E6
:100F50000030C9000030C8000A128A15B8210A12F0
:100F60008A11831603134B08E5004A08E400490878
:100F7000E3004808E2000A168A15F4250A128A11CD
:100F8000831603136508ED006408EC006308EB00AA
:100F90006208EA000A168A11EC250A128A118316E1
:100FA00003136B08EF006A08EE006F088312031347
:100FB0008F00831603136E08831203138E00E62F2F
:100FC000D830831203138F00F0308E000800831690
:100FD0000313A200A101221CEE2FEF2FF32F2008F4
:100FE000FF007F08A1070310A00D0310A20C220828
:100FF000031DFB2FFC2FEB2F21080800FF3FFF3FB5
:10100000FF3FFF3FF501F31F062807280E28F209CE
:10101000F309F20A0319F30AF501F50AF11F112881
:1010200012281728F009F109F00A0319F10A7008CB
:10103000710403191C281D284C28F401F40A2B28DC
:1010400001300310F00DF10DFF3E031D212801308A
:10105000FF007F08F407F11F2E282F282028710891
:101060007302031D352870087202031C38283928C2
:101070003F287008F2027108031CF303F3020130E9
:101080000310F10CF00CFF3E031D40280130F40268
:10109000031D4B284C282F28750803195028512868
:1010A0005628F209F309F20A0319F30A7308F1004A
:1010B0007208F00008000130FF007F08831203135C
:1010C000CD0702304D060319662867286828B7291E
:1010D000CD01F4010330FF007F08F00074080A1608
:1010E0008A150E250A128A15913E8400831700087E
:1010F000F3000330FF007F08F00074080A168A1519
:101100000E250A128A15903E84007308831780000A
:1011100002307406031D8D288E28AB280330FF0093
:101120007F08F00074080A168A150E250A128A151F
:10113000913E8400831203130608F300023003106B
:10114000F30CFF3E031D9F2873080139FF007F0841
:101150008317800092297403031DAF28B028C82884
:101160000330FF007F08F00074080A168A150E2568
:101170000A128A15913E8400831203130608F300B5
:101180000310730C0139FF007F0883178000922938
:101190007408031DCC28CD28E2280330FF007F0807
:1011A000F00074080A168A150E250A128A15913E57
:1011B00084008312031306080139FF007F08831798
:1011C0008000922992290330FF007F08F000740804
:1011D0000A168A150E250A128A15903E8400831776
:1011E0000008031DF428F528AD290330FF007F080F
:1011F000F00074080A168A150E250A128A15913E07
:10120000840083170008031D06290729AD29033030
:10121000FF007F08F00074080A168A150E250A12CE
:101220008A15923E840083178001800AAD2903301D
:10123000FF007F08F00074080A168A150E250A12AE
:101240008A15913E840083170008031D2829292947
:10125000AD290330FF007F08F00074080A168A15D4
:101260000E250A128A15923E84000230FF007F0884
:1012700083178000AD290330FF007F08F000740859
:101280000A168A150E250A128A15903E84008317C5
:101290000003031D4C294D29AD290330FF007F08B1
:1012A000F00074080A168A150E250A128A15913E56
:1012B000840083170003031D5E295F29AD290330D5
:1012C000FF007F08F00074080A168A150E250A121E
:1012D0008A15923E84000330FF007F088317800048
:1012E000AD290330FF007F08F00074080A168A1544
:1012F0000E250A128A15913E840083170003031DF0
:1013000082298329AD290330FF007F08F00074088B
:101310000A168A150E250A128A15923E8400831732
:101320008001AD290330FF007F08F00074080A1621
:101330008A150E250A128A15923E8400831700082A
:10134000003A0319E328013A03191729033A03194C
:101350003B29013A03197129AD290130FF007F08AB
:10136000F40703307402031CB629B7296A28080061
:10137000831603134F088039FF007F08D9004F08F8
:10138000D0005007FF007F08E000CE1FC829C92900
:10139000CA29601460080319CE29CF29DF29600A01
:1013A000031DD329D429DC290030CF000030CE0022
:1013B0000030CD000030CC00CE17CF01E72900303F
:1013C000CF000030CE000030CD000030CC004B0804
:1013D0008039FF007F08D9064B08D0005007FF0076
:1013E0007F08E100CA1FF529F629F7296114610871
:1013F0000319FB29FC290C2A610A031D002A012A72
:10140000092A0030CB000030CA000030C90000308B
:10141000C800CA17CB01142A0030CB000030CA0024
:101420000030C9000030C8004B084A044904480491
:10143000031D1B2A1C2A352A0030CF000030CE00A5
:101440000030CD000030CC008030CE047F30CF049F
:101450005908FF007F08CF044F08CB004E08CA0090
:101460004D08C9004C08C800942B6008031D392A98
:101470003A2A432A0030CB000030CA000030C900AD
:101480000030C800942B6008D000D1015108D3006F
:1014900061085002D200031CD30352087F3EDA00D9
:1014A00053080318013E003EDB004F08D8004E08E9
:1014B000D7004D08D6004C08D5000030CF000030D2
:1014C000CE000030CD000030CC000030DF00003016
:1014D000DE000030DD000030DC00E101B92A6108E7
:1014E0000319732A742A942A0130D0000310D50DF1
:1014F000D60DD70DD80DD00B762A0130D0000310B1
:10150000CC0DCD0DCE0DCF0DD00B7F2ADF1F892A3C
:101510008A2A8B2A4C140130D0000310DC0DDD0D1B
:10152000DE0DDF0DD00B8D2A4B085802031DA22AB9
:101530004A085702031DA22A49085602031DA22A7F
:1015400048085502031CA52AA62AB52A5F17480891
:10155000D5024908031C490FD6024A08031C4A0F4A
:10156000D7024B08031C4B0FD8020130FF007F0845
:10157000E1071A306102031CBE2ABF2A6F2A5808ED
:101580005704560455040319C62AC72AE62A5C14D0
:10159000E62A0130D0000310CC0DCD0DCE0DCF0DBD
:1015A000D00BCB2ADF1FD52AD62AD72A4C140130DC
:1015B000D0000310DC0DDD0DDE0DDF0DD00BD92AC0
:1015C000FF30DA070318DB0AFF30DB07CE1FE92AFA
:1015D000EA2AC92AE101DF1FEE2AEF2A0B2BFF308E
:1015E0005C05D000FF305D05D100FF305E05D20004
:1015F0007F305F05D300530852045104500403198F
:10160000022B032B062BE101E10A0B2B4C1C092BAF
:101610000A2B0B2B032B610803190F2B102B412BCB
:101620000130CC07003003180130CD07003003181B
:101630000130CE07003003180130CF074F1C212B9B
:10164000222B412B4C08D0004D08D1004E08D2006F
:101650004F08D3000130D400530DD30CD20CD10C61
:10166000D00CD40B2C2B5308CF005208CE005108BD
:10167000CD005008CC000130DA070318DB0A003037
:10168000DB075B08803AFF0080307F02031D4A2B96
:10169000FF305A02031C4D2B4E2B5C2BFF30831660
:1016A0000313DA000030DB000030CF000030CE0042
:1016B0000030CD000030CC00831603135B08803A65
:1016C000FF0080307F02031D672B01305A02031890
:1016D0006A2B6B2B782B83160313DA01DB010030A6
:1016E000CF000030CE000030CD000030CC00D9015A
:1016F000831603135A08FF007F08E000601C812B4B
:10170000822B842BCE17882B7F30FF007F08CE05DD
:101710006008D0000310500CFF007F08CF0059086C
:10172000FF007F08CF042C2A080077088039FF00CB
:101730007F0883120313A4007708F8007807FF00DE
:101740007F08AB00F61FA52BA62BA72B2B142B086D
:101750000319AB2BAC2BBC2B2B0A031DB02BB12BCD
:10176000B92B0030F7000030F6000030F5000030F3
:10177000F400F617F701C42B0030F7000030F60034
:101780000030F5000030F40073088039FF007F0856
:10179000A4067308F8007807FF007F08AC00F21F6A
:1017A000D22BD32BD42B2C142C080319D82BD92BA8
:1017B000E92B2C0A031DDD2BDE2BE62B0030F3007A
:1017C0000030F2000030F1000030F000F217F301B9
:1017D000F12B0030F3000030F2000030F100003057
:1017E000F0007308720471047004031DF82BF92BC8
:1017F000122C0030F7000030F6000030F500003009
:10180000F4008030F6047F30F7042408FF007F08DE
:10181000F7047708F3007608F2007508F100740801
:10182000F000772D2B08031D162C172C202C0030D0
:10183000F3000030F2000030F1000030F000772DAE
:101840002B08F800F9017908FB002C087802FA004F
:10185000031CFB037A087F3EA5007B080318013EAA
:10186000003EA6007708A3007608A2007508A10034
:101870007408A0000030F7000030F6000030F500DA
:101880000030F4000030AA000030A9000030A800A9
:101890000030A700AC019C2C2C080319502C512CB3
:1018A000712C0130F8000310A00DA10DA20DA30DA5
:1018B000F80B532C0130F8000310F40DF50DF60D64
:1018C000F70DF80B5C2CAA1F662C672C682C74147F
:1018D0000130F8000310A70DA80DA90DAA0DF80BF3
:1018E0006A2C73082302031D7F2C72082202031D39
:1018F0007F2C71082102031D7F2C70082002031C1D
:10190000822C832C982C2A177008A0027108031CC3
:10191000710F8B2C8C2CA1027208031C720F912C5E
:10192000922CA2027308031C730F972C982CA3020D
:101930000130FF007F08AC071A302C02031CA12CD9
:10194000A22C4C2C23082204210420040319A92CC6
:10195000AA2CC92C2714C92C0130F8000310F40D4F
:10196000F50DF60DF70DF80BAE2CAA1FB82CB92CFF
:10197000BA2C74140130F8000310A70DA80DA90D9E
:10198000AA0DF80BBC2CFF30A5070318A60AFF30E0
:10199000A607F61FCC2CCD2CAC2CAC01AA1FD12C49
:1019A000D22CEE2CFF302705F800FF302805F90077
:1019B000FF302905FA007F302A05FB007B087A04F6
:1019C000790478040319E52CE62CE92CAC01AC0A67
:1019D000EE2C741CEC2CED2CEE2CE62C2C080319B0
:1019E000F22CF32C242D0130F407003003180130C1
:1019F000F507003003180130F607003003180130F6
:101A0000F707771C042D052D242D7408F8007508A0
:101A1000F9007608FA007708FB000130FC007B0D26
:101A2000FB0CFA0CF90CF80CFC0B0F2D7B08F700E3
:101A30007A08F6007908F5007808F4000130A50767
:101A40000318A60A0030A6072608803AFF00803057
:101A50007F02031D2D2DFF302502031C302D312D5B
:101A60003F2DFF3083120313A5000030A600003085
:101A7000F7000030F6000030F5000030F40083126B
:101A800003132608803AFF0080307F02031D4A2D91
:101A90000130250203184D2D4E2D5B2D83120313AB
:101AA000A501A6010030F7000030F6000030F50077
:101AB0000030F400A401831203132508FF007F08FF
:101AC000AB002B1C642D652D672DF6176B2D7F3019
:101AD000FF007F08F6052B08F8000310780CFF00C4
:101AE0007F08F7002408FF007F08F704092C08008E
:101AF0008316031323088039FF007F08B0002308F2
:101B0000A8002807FF007F08B200A21F882D892D9A
:101B10008A2D3214320803198E2D8F2D9F2D320AF3
:101B2000031D932D942D9C2D0030A3000030A200A6
:101B30000030A1000030A000A217A301A72D0030A3
:101B4000A3000030A2000030A1000030A000270850
:101B50008039FF007F08B100310830060319B12D2C
:101B6000B22DB32D30172708A8002807FF007F08E3
:101B7000B100A61FBC2DBD2DBE2D31143108031997
:101B8000C22DC32DD32D310A031DC72DC82DD02D35
:101B90000030A7000030A6000030A5000030A400EF
:101BA000A617A701DB2D0030A7000030A6000030EB
:101BB000A5000030A400320831020318E02DE12D09
:101BC000252E301FE42DE52DE92D8030FF007F0804
:101BD000B0063208FF007F08B3003108FF007F081D
:101BE000B2003308FF007F08B1002008FF007F0823
:101BF000B3002408FF007F08A0003308FF007F081F
:101C0000A4002108FF007F08B3002508FF007F081B
:101C1000A1003308FF007F08A5002208FF007F080D
:101C2000B3002608FF007F08A2003308FF007F08EA
:101C3000A6002308FF007F08B3002708FF007F08E5
:101C4000A3003308FF007F08A700B3013108A800F4
:101C5000A9012908AB0032082802AA00031CAB0323
:101C60002B08803AFF0080307F02031D392E1A3086
:101C70002A02031C3C2E3D2E7A2E831603132308C2
:101C8000220421042004031D462E482E0130492E33
:101C90000030FF007F08B3000030A3000030A20036
:101CA0000030A1000030A0003108FF007F08B20022
:101CB000822E331C5C2E5D2E662E3308A800031086
:101CC000280C0138FF007F08B300682E0310B30C06
:101CD000201C6B2E6C2E6D2EB3170130A800230D27
:101CE000A30CA20CA10CA00CA80B6F2E0130FF00BE
:101CF0007F08B2078316031331083202031C812EBA
:101D0000822E592E301B852E862ED12E3208031D91
:101D10008A2E8B2E942E0030A3000030A2000030BB
:101D2000A1000030A000FF2F2408A0072508031100
:101D30000318013E03199D2EA1072608031103185D
:101D4000013E0319A42EA207270803110318013E20
:101D50000319AB2EA307231CAE2EAF2E852F331CE9
:101D6000B22EB32EBC2E3308A8000310280C013865
:101D7000FF007F08B300BE2E0310B30C201CC12E41
:101D8000C22EC32EB3170130A800230DA30CA20C42
:101D9000A10CA00CA80BC52E0130FF007F08B207D4
:101DA000852F2308803AFF002708803A7F02031D11
:101DB000E32E26082202031DE32E25082102031D1F
:101DC000E32E240820020318E62EE72E3F2FFF30D3
:101DD000A800FF30A900FF30AA00FF30AB002408A4
:101DE000AC002508AD002608AE002708AF0020088B
:101DF000AC022108031C210FFE2EFF2EAD0222088B
:101E0000031C220F042F052FAE022308031C230FEF
:101E10000A2F0B2FAF022C08A8072D0803182D0F2F
:101E2000122F132FA9072E0803182E0F182F192F62
:101E3000AA072F0803182F0AAB072B08A3002A08AC
:101E4000A2002908A1002808A0008030FF007F0818
:101E5000B006B309B30A3308031D2F2F302F4D2FBF
:101E60000130A007003003180130A107003003182B
:101E70000130A207003003180130A3074D2F2408BA
:101E8000A0022508031C250FA1022608031C260F0B
:101E9000A2022708031C270FA302230822042104FF
:101EA0002004031D542F552F812F3308031D592F54
:101EB0005A2F812F0030A3000030A2000030A10073
:101EC0000030A000FF2F0130A8000310A00DA10DCD
:101ED000A20DA30DA80B652FB31F6F2F702F712FAD
:101EE0002014331C742F752F782F0314B30D7A2F01
:101EF0000310B30D320803197E2F7F2F812F01307D
:101F0000B202A21F842F852F632FB101B31F892F27
:101F10008A2F982F33087F3903198F2F902F932FF3
:101F2000B101B10A982F201C962F972F982F902F30
:101F3000310803199C2F9D2FD12F0130A0070030AD
:101F400003180130A107003003180130A207003048
:101F500003180130A307231CAE2FAF2FD12F200869
:101F6000A8002108A9002208AA002308AB0001301C
:101F7000AC002B0DAB0CAA0CA90CA80CAC0BB92F08
:101F80002B08A3002A08A2002908A1002808A00005
:101F9000320A0319CC2FCD2FD12F0130FF007F083B
:101FA000B207320A0319D52FD62FDB2F3208031DB3
:101FB000DA2FDB2FE92F0030A3000030A200003021
:101FC000A1000030A0003208031DE72FE82FE92F01
:101FD000B001321CEC2FED2FEF2FA217F32F7F3023
:101FE000FF007F08A2053208A8000310280CFF009C
:101FF0007F08A300B01FFD2FFE2FFF2FA31708009F
:10200000FF3FFF3F013083160317A5070030031879
:102010000130A607003003180130A707003003186D
:102020000130A8070A3025062604270428040319CE
:102030001A281B281C282E280030A8000030A700D2
:102040000030A6000030A5000A168A1177240A166F
:102050008A110A168A119B230A168A110800831214
:1020600003135808031D35283628462801308316E7
:102070000317A107003003180130A207003003182E
:102080000130A307003003180130A40702300A16FC
:102090008A1591240A168A11013A031950285128E9
:1020A000672801300A168A1591240A168A11013A06
:1020B00003195B285C28672800300A168A159124CA
:1020C0000A168A11013A031D662867287128003014
:1020D00083160317A4000030A3000030A2000030D4
:1020E000A10008000130831603179D070030031874
:1020F00001309E070030031801309F07003003189D
:102100000130A00702301D061E041F04200403191D
:102110008A288B288C28B5280030A00000309F002A
:1021200000309E0000309D000A168A1165250A16AF
:102130008A11831203135808031D9F28A028AB2877
:102140000A168A1523250A168A110A168A153D27AA
:102150000A168A11B5285803031DAF28B028B528E0
:102160000A168A1131230A168A110800F500831213
:1021700003131F14831603139F177508F200023010
:102180000310F20CFF3E031DC0287218C828CC288B
:10219000831203139F16CF28831203139F1275080F
:1021A000F20001300310F20CFF3E031DD22872181A
:1021B000DA28DE28831203131F16E1288312031383
:1021C0001F127518E428E828831203139F15EB28C3
:1021D000831203139F111F151F19EF28F028EC28F5
:1021E0001E08F400831603131E08F3008312031362
:1021F0001F107408F1007308F00008008316031321
:102200000608FB39043886000608FD3902388600C6
:10221000A3010330FF007F08A00023080A128A11DF
:10222000E7270A168A11903E840083178001800AEE
:102230000330FF007F0883160313A00023080A124F
:102240008A11E7270A168A11913E840083178001BC
:10225000800A0330FF007F0883160313A0002308C1
:102260000A128A11E7270A168A11923E8400831700
:1022700080010130FF007F0883160313A30703309A
:102280002302031C4429452909290800FC000330C6
:10229000831203135206530454045504031D512999
:1022A000522977295208FF007F08F8000A30F00011
:1022B0000030F1007C08FA00FB017A08F2007B088C
:1022C000F3000A168A1162220A168A1170080A1689
:1022D0008A154F250A168A11003083120313D50080
:1022E0000030D4000030D3000430D2009B295208C3
:1022F000FF007F08F8000A30F0000030F1007C0891
:10230000FA00FB017A08F2007B08F3000A128A1532
:1023100002200A168A1170080A168A154F250A1615
:102320008A11003083120313D5000030D40000302E
:10233000D3000330D200080072080139FF007F0883
:10234000F5007108FF007F08F3000A168A15312492
:102350000A168A1175080319AE29AF29BB29A230C4
:102360000A168A15A1240A168A11003A031DB929F2
:10237000BA29AF29C629A0300A168A15A1240A163F
:102380008A11003A031DC529C629BB2973080A16FC
:102390008A15A1240A168A110A168A1531240A16EA
:1023A0008A1175080319D529D629E229A3300A16FE
:1023B0008A15A1240A168A11003A031DE029E12991
:1023C000D629ED29A1300A168A15A1240A168A11E8
:1023D000003A031DEC29ED29E2290A168A15662523
:1023E0000A168A11FF007F08F4000A168A153A249B
:1023F0000A168A11740808000030FC000030FB0047
:102400000030FA000030F90073087204710470049F
:1024100003190B2A0C2A592AFD01FD0A1C2A013036
:10242000F8000310F00DF10DF20DF30DF80B112A69
:102430000130FF007F08FD07F31F1F2A202A0F2A03
:102440000130F8000310F90DFA0DFB0DFC0DF80B2F
:10245000222A73087702031D372A72087602031DA9
:10246000372A71087502031D372A70087402031C8D
:102470003A2A3B2A4A2A7008F4027108031C710F99
:10248000F5027208031C720FF6027308031C730F27
:10249000F702791401300310F30CF20CF10CF00C7C
:1024A000FF3E031D4B2A0130FD02031D582A592A05
:1024B000202A7C08F3007B08F2007A08F1007908F2
:1024C000F0000800F501F11F662A672A6E2AF0095C
:1024D000F109F00A0319F10AF501F50AF31F712A4F
:1024E000722A7B2AF209F309F20A0319F30A01306E
:1024F000FF007F08F506F601F70170087104031963
:10250000822A832ABA2AF401F40A912A013003109C
:10251000F00DF10DFF3E031D872A0130FF007F08FB
:10252000F407F11F942A952A862A01300310F60D2C
:10253000F70DFF3E031D962A71087302031DA22AA0
:1025400070087202031CA52AA62AAD2A7008F2029E
:102550007108031CF303F302761401300310F10C2D
:10256000F00CFF3E031DAE2A0130F402031DB92A10
:10257000BA2A952A75080319BE2ABF2AC42AF60961
:10258000F709F60A0319F70A7708F1007608F00050
:102590000800003083160313AC000030AB0000309D
:1025A000AA000030A90023082204210420040319F2
:1025B000DA2ADB2A282BAD01AD0AEB2A0130A8006C
:1025C0000310A00DA10DA20DA30DA80BE02A013050
:1025D000FF007F08AD07A31FEE2AEF2ADE2A013095
:1025E000A8000310A90DAA0DAB0DAC0DA80BF12A84
:1025F00023082702031D062B22082602031D062B93
:1026000021082502031D062B20082402031C092B88
:102610000A2B192B2008A4022108031C210FA50254
:102620002208031C220FA6022308031C230FA70263
:10263000291401300310A30CA20CA10CA00CFF3E26
:10264000031D1A2B0130AD02031D272B282BEF2A67
:102650002C08A3002B08A2002A08A1002908A0002A
:102660000800831203134B03031D372B382B9A2BBF
:102670005608FB3EF000FF3003180030F1007008F0
:10268000F2007108F3000030F31BFF30F400F50096
:10269000831603172C087502031D582B2B08740290
:1026A000031D582B2A087302031D582B2908720298
:1026B000031C5B2B5C2B672B0A168A154C240A160D
:1026C0008A110A168A1503240A168A11972B831277
:1026D00003135608053EF000003003180130F100E6
:1026E0007008F2007108F3000030F31BFF30F400B3
:1026F000F5007508831603172C02031D892B740837
:102700002B02031D892B73082A02031D892B7208D3
:102710002902031C8C2B8D2B972B0A168A150A2451
:102720000A168A110A168A1543240A168A11831278
:102730000313CB0108000130FF007F08831203134D
:10274000CC075008A000A101A201A3012008831614
:102750000317AD0783120313210803110318013E69
:102760000319B52B83160317AE0783120313220830
:1027700003110318013E0319C02B83160317AF077B
:1027800083120313230803110318013E0319CB2BF3
:1027900083160317B00783120313831603170A3037
:1027A000831203134C06031DD62BD72B072C0030A6
:1027B000F3000030F2000030F1000A30F000831620
:1027C00003173008F7002F08F6002E08F5002D0833
:1027D000F4000A168A11FC210A168A11730883165E
:1027E0000317AC007208AB007108AA007008A900BA
:1027F00083120313CC01CB01CB0A003083160317DD
:10280000B0000030AF000030AE000030AD00080076
:10281000013083160317B907003003180130BA07D7
:10282000003003180130BB07003003180130BC072B
:10283000023039063A043B043C040319202C212CB5
:10284000222C762C0030BC000030BB000030BA00D7
:102850000030B900831203135803031D302C312CB0
:10286000382C50080A168A1146210A168A11762C2D
:102870005808031D3C2C3D2C712C01308316031786
:10288000B507003003180130B607003003180130D7
:10289000B707003003180130B80783120313570835
:1028A0000A168A1146210A168A1164308316031704
:1028B000350636043704380403195F2C602C612C6C
:1028C000762C0A168A1528240A168A1100308316D7
:1028D0000317B8000030B7000030B6000030B50074
:1028E000762C0A168A15F9230A168A110800023076
:1028F0000A168A11B6200A168A1171088312031368
:10290000C7007008C6003B30A3009F30A200FF3014
:10291000A100E530A0004608F0004708F100F201F0
:10292000F30100300A168A118A260A168A117308E2
:1029300083120313A7007208A6007108A50070088F
:10294000A4000A128A11AC230A168A1183120313F7
:10295000230883160317B400831203132208831677
:102960000317B30083120313210883160317B20061
:1029700083120313200883160317B1003408F700ED
:102980003308F6003208F5003108F4003C30F3005B
:102990002330F200D730F1000A30F0000A128A1515
:1029A00095230A168A11730883120313B000720864
:1029B000AF007108AE007008AD000A168A11E92454
:1029C0000A168A11831203132D08FF007F08D00016
:1029D00008000310831203132F0D300DFF007F0832
:1029E000B6003608031DF52CF62CFF2C0030B00085
:1029F0000030AF000030AE000030AD00642D2D0877
:102A0000B1002E08B2002F08B3003008B4001F3008
:102A10000310B40CB30CB20CB10CFF3E031D082D17
:102A20003108FF007F08B500AF17FF30AD05FF305C
:102A3000AE05FF30AF050030B0059630B602B61FC8
:102A4000222D232D3D2D3608803A973E0318292D3F
:102A50002A2D2B2DF62C01300310B00CAF0CAE0C30
:102A6000AD0CFF3E031D2C2D0130FF007F08B60783
:102A7000031D3B2D3C2D2B2D542D20303602031CE5
:102A8000422D432D4F2DF62C0130B1000310AD0D1A
:102A9000AE0DAF0DB00DB10B462D0130B6023608AC
:102AA000031D532D542D442D35080319582D592D30
:102AB000642DAD09AE09AF09B009AD0A0319AE0A1C
:102AC0000319AF0A0319B00A080002300A168A1562
:102AD00091240A168A11013A03196F2D702D7B2D4E
:102AE00001300A168A1591240A168A11013A031D2B
:102AF0007A2D7B2DAA2D0230831203134206430444
:102B0000440445040319852D862DAA2D410840044F
:102B10003F043E0403198D2D8E2DAA2D0A168A1509
:102B20000A240A168A110A168A1503240A168A111B
:102B300083120313D8010130C2070030031801309B
:102B4000C307003003180130C407003003180130F8
:102B5000C507EB2D00300A168A1591240A168A1132
:102B6000013A031DB42DB52DEB2D8312031341083B
:102B700040043F043E04031DBE2DBF2DCA2DD801C5
:102B8000D80A0030C1000030C0000030BF00013062
:102B9000BE00EB2D3E033F0440044104031DD12D34
:102BA000D22DEB2D0A168A15D3240A168A110A167D
:102BB0008A15D0250A168A110230FF007F08831279
:102BC0000313D8000030C1000030C0000030BF0047
:102BD0000030BE00EB2D08000310831603136C0DAC
:102BE0006D0DFF007F0883160317C2004208031D06
:102BF000FA2DFB2D062E003083160313ED00003056
:102C0000EC000030EB000030EA00892E831603133D
:102C10006A0883160317BD00831603136B08831617
:102C20000317BE00831603136C0883160317BF0037
:102C3000831603136D0883160317C0001F3003109B
:102C4000C00CBF0CBE0CBD0CFF3E031D1F2E3D086B
:102C5000FF007F08C10083160313EC17FF30EA055D
:102C6000FF30EB05FF30EC050030ED0596308316A4
:102C70000317C202C21F3D2E3E2E5C2E4208803A30
:102C8000973E0318442E452E462EFB2D013003108F
:102C900083160313ED0CEC0CEB0CEA0CFF3E031D4A
:102CA000472E0130FF007F0883160317C207031D5C
:102CB0005A2E5B2E462E772E20304202031C612EA8
:102CC000622E722EFB2D0130BD00031083160313FC
:102CD000EA0DEB0DEC0DED0D83160317BD0B652E04
:102CE0000130C2024208031D762E772E632E410862
:102CF00003197B2E7C2E892E83160313EA09EB0918
:102D0000EC09ED09EA0A0319EB0A0319EC0A0319A5
:102D1000ED0A0800F800780803198F2E902EA42ED3
:102D2000F31F932E942EA42E7009FA007109FB0054
:102D30007209FC007309FD00FA0A0319FB0A031962
:102D4000FC0A0319FD0AAC2E7308FD007208FC0092
:102D50007108FB007008FA007308720471047004B3
:102D6000031DB32EB42EBD2E0030F3000030F20050
:102D70000030F1000030F000432F9630FF007F0854
:102D8000F900CF2E0130FF007F08F9070130031052
:102D9000FD0CFC0CFB0CFA0CFF3E031DC72EFE3095
:102DA0007D05031DD42ED52EC22EF12E0130FF003D
:102DB0007F08F9070130FA07003003180130FB07DC
:102DC000003003180130FC07003003180130FD0704
:102DD00001300310FD0CFC0CFB0CFA0CFF3E031D34
:102DE000E92EFF307D05031DF62EF72ED62E032F7C
:102DF0000130F9020130F4000310FA0DFB0DFC0D57
:102E0000FD0DF40BFC2EFC1B062F072F0D2F02309F
:102E1000790203180C2F0D2FF82E7918102F112F6F
:102E2000192FFF30FA05FF30FB057F30FC05FF301E
:102E3000FD050310F90C7908F400F501F601F7011E
:102E400018300310F40DF50DF60DF70DFF3E031DC0
:102E5000212F7408FA047508FB047608FC0477082F
:102E6000FD0478080319352F362F3B2FF31F392F18
:102E70003A2F3B2FFD177D08F3007C08F2007B08FA
:102E8000F1007A08F000080083160313A800280850
:102E900003194B2F4C2F602FA31F4F2F502F602F44
:102EA0002009AA002109AB002209AC002309AD00CA
:102EB000AA0A0319AB0A0319AC0A0319AD0A682F51
:102EC0002308AD002208AC002108AB002008AA00AE
:102ED0002308220421042004031D6F2F702F792F53
:102EE0000030A3000030A2000030A1000030A0009C
:102EF000FF2F9630FF007F08A9008B2F0130FF00C5
:102F00007F08A90701300310AD0CAC0CAB0CAA0C68
:102F1000FF3E031D832FFE302D05031D902F912FA3
:102F20007E2FAD2F0130FF007F08A9070130AA07CF
:102F3000003003180130AB07003003180130AC0734
:102F4000003003180130AD0701300310AD0CAC0C9C
:102F5000AB0CAA0CFF3E031DA52FFF302D05031D52
:102F6000B22FB32F922FBF2F0130A9020130A4003E
:102F70000310AA0DAB0DAC0DAD0DA40BB82FAC1BFF
:102F8000C22FC32FC92F023029020318C82FC92FFF
:102F9000B42F2918CC2FCD2FD52FFF30AA05FF3005
:102FA000AB057F30AC05FF30AD050310A90C290837
:102FB000A400A501A601A70118300310A40DA50DBA
:102FC000A60DA70DFF3E031DDD2F2408AA0425082A
:102FD000AB042608AC042708AD0428080319F12F18
:102FE000F22FF72FA31FF52FF62FF72FAD172D0870
:102FF000A3002C08A2002B08A1002A08A0000800AA
:10300000FF3FFF3FFF3FFF3FFF3FFF3FFF3FFF3FD0
:10301000FF3FFF3FFF3FFF3FFF3FFF3FFF3FFF3FC0
:10302000FF3FFF3FFF3FFF3FFF3FFF3FFF3FFF3FB0
:10303000FF3FFF3FFF3FFF3FFF3FFF3FFF3FFF3FA0
:1037F000FF3F831203138801080083120313901202
:10380000101210100800831203130708F8398700FC
:10381000C8010800831203130708C0398700C901D3
:10382000080003340034003400343C343C340234A7
:10383000F0007008FF007F0883120313CE00080019
:1038400064008001840A0406031900340406212C54
:103850008312031388010A168A15F9240A168A1599
:1038600008000A168A1584240A168A15831603137B
:10387000111408000A168A1584240A168A1583165C
:10388000031311150800831203130708F8390438CD
:103890008700C801C80A0800831203130708C0394B
:1038A00020388700C901C90A0800831603130608D7
:1038B0007F39860006087F398600080083160313C7
:1038C0000708DF3987000708FB39870008000A1658
:1038D0008A157D270A168A156C2C0A128A1112285D
:1038E000831603130508F73985000508F7398500A5
:1038F000880108003F3406345B344F3466346D343D
:103900007D3407347F346F34831603131419892CE4
:103910008A2C842C11081F39031D8F2C902C842C89
:103920000800F3000330FF007F08F00073080A1658
:103930008A150E250A168A15923E84008317000800
:103940000800F00070088312031393008C1DA92C4B
:10395000AA2CA62C8C11003083160313111B0130E6
:103960000800F1000130F000710AB82C0310F00DCE
:10397000FF3E031DB62C7008FF007F08831203135F
:1039800086060800831203131F10831603131F13E8
:10399000831203139F13831603131F139F151F1105
:1039A0009F141F1008003030F1000030F2000A169A
:1039B0008A119C210A168A15FF007F0883120313BF
:1039C000CA004A08FF007F08D60008007E088A0067
:1039D0007F0882000A168A15E6240A168A158000D6
:1039E000840A04087D0603190034FF0A0319FE0A3D
:1039F000EA2C831203134E03031DFF2C002D072D09
:103A000000300A168A1518240A168A150D2D013061
:103A10000A168A1518240A168A150800F200F10100
:103A2000721C132D142D182D7008FF007F08F1074C
:103A30000310F00D0310F20C7208031D202D212D30
:103A4000102D710808003030F1000030F2008312B0
:103A500003135708FF007F08F3000A168A15012791
:103A60000A168A15831203135708FF007F08D60031
:103A7000080083160317CC000B178B174C080A128B
:103A80008A110D270A168A158312031390100C1041
:103A9000831603130C148312031310140800F90087
:103AA000831203134E08031D562D572D652D7808DC
:103AB0000A168A15B1250A168A157908CD3E8400A2
:103AC0008317000883120313880008000A168A155A
:103AD00084240A168A1583160313911583128C1DEC
:103AE000722D732D6E2D8C110A168A1584240A16D8
:103AF0008A158312031313080800F2000030F00047
:103B0000720A842D0310F00DFF3E031D822DFE303E
:103B1000F100720A8D2D0310F10DFF3E031D8B2D58
:103B20007108831203130605700486000800F20072
:103B30000130F000720A9E2D0310F00DFF3E031DB0
:103B40009C2DFE30F100720AA72D0310F10DFF3EEF
:103B5000031DA52D7108831203130605700486004A
:103B60000800F000C72D831203130508E039850013
:103B70000508F03908388500CF2D83120313050896
:103B8000F03985000508E03910388500CF2D700820
:103B9000033A0319B32D073A0319BD2DCF2D0800A1
:103BA0000A168A150A240A168A150A168A15032483
:103BB0000A168A15003083160317A4000030A300EC
:103BC0000030A2000030A100003083120313C500B2
:103BD0000030C4000030C3000030C2003C30FF00A1
:103BE0007F08D700CE010800803083160313E50656
:103BF0006908A3006808A2006708A1006608A00081
:103C00006508A7006408A6006308A5006208A40070
:103C10000A128A1578250A168A15831603132308B3
:103C2000E5002208E4002108E3002008E200080083
:103C3000F800F401F5017008F200F3017208F600D3
:103C40007308F700781C252E262E2C2E7608F407F4
:103C50000318F50A7708F50701300310F60DF70D84
:103C6000FF3E031D2D2E0310F80C7808031D392E7E
:103C70003A2E222E7508F1007408F0000800F43086
:103C8000831603172106031D4C2E2203230424044C
:103C900003194B2E4C2E4D2E662E83120313D80182
:103CA000D80A003083160317A4000030A3000030A8
:103CB000A2000030A100003083120313C5000030C1
:103CC000C4000030C3000030C200CE0108008316DB
:103CD0000313A800A401A5012008A200A301220843
:103CE000A6002308A700281C762E772E7D2E2608F6
:103CF000A4070318A50A2708A50701300310A60D7D
:103D0000A70DFF3E031D7E2E0310A80C2808031DDF
:103D10008A2E8B2E732E2508A1002408A0000800EF
:103D200028308312031394008316031391012E0885
:103D3000B2002F08B3003008B4003108B5000230DB
:103D40000310B20DB30DB40DB50DFF3E031DA02E33
:103D50003508A3003408A2003308A1003208A000EF
:103D60000030A7003D30A6000930A5000030A400B7
:103D70000A168A11C9220A168A1583160313200807
:103D8000FF3E930094018715071608000A168A1152
:103D90002F200A168A150A168A153F260A168A1532
:103DA0000A168A1108240A168A150A128A155B2037
:103DB0000A168A150A168A1102200A168A150A1688
:103DC0008A15BE270A168A150A168A1172200A1643
:103DD0008A15831603136F08831203138F0083164B
:103DE00003136E08831203138E000C103D08FF00AE
:103DF0003C088A003B0884003A0E8300FE0E7E0ECB
:103E0000090072080139FF007F08F4007108FF0003
:103E10007F08F5000A168A1531240A168A157408D7
:103E20000319132F142F202FA2300A168A15A1244C
:103E30000A168A15003A031D1E2F1F2F142F2B2F31
:103E4000A0300A168A15A1240A168A15003A031D05
:103E50002A2F2B2F202F75080A168A15A1240A163F
:103E60008A1573080A168A15A1240A168A150A16D5
:103E70008A153A240A168A15080002300A168A158D
:103E800091240A168A15013A031D472F482F5E2FE9
:103E90000230831203134206430444044504031D05
:103EA000522F532F5E2F4B3057020318582F592F84
:103EB0007C2F0530FF007F08D7077C2F01300A16C2
:103EC0008A1591240A168A15013A031D682F692F55
:103ED0007C2F02308312031342064304440445043A
:103EE000031D732F742F7C2F24305702031C792F4E
:103EF0007A2F7C2F0530D70208000A168A15FD2379
:103F00000A168A150A168A15C2240A168A1500305E
:103F100083160313B1000130B0008630AF00A0302B
:103F2000AE000A168A1590260A168A150A168A15F0
:103F300070240A168A150A168A11FE200A168A1596
:103F40000A168A155E240A168A150A168A15552439
:103F50000A168A150A300A168A1539250A168A158C
:103F6000DF30FF007F0883120313870583160313D6
:103F700088010430FF007F088505080001308316A2
:103F8000031799070030031801309A07003003180F
:103F900001309B070030031801309C07643019067C
:103FA0001A041B041C040319D62FD72FD82FFF2F58
:103FB00000309C0000309B0000309A0000309900D7
:103FC0008312031349080319E62FE72FEE2F07305A
:103FD0000A168A15B1240A168A15FF2F48080319F4
:103FE000F22FF32FFF2F07300A168A157D250A16A8
:103FF0008A1507300A168A1597250A168A150800A9
:10400000FF3FFF3FFF3FFF3FFF3FFF3FFF3FFF3FC0
:02400E00713F00
:10420000FF00FF00FF00FF00FF00FF00FF00FF00B6
:10421000FF00FF00FF00FF00FF00FF00FF00FF00A6
:10422000FF00FF00FF00FF00FF00FF00FF00FF0096
:10423000FF00FF00FF00FF00FF00FF00FF00FF0086
:10424000FF00FF00FF00FF00FF00FF00FF00FF0076
:10425000FF00FF00FF00FF00FF00FF00FF00FF0066
:10426000FF00FF00FF00FF00FF00FF00FF00FF0056
:10427000FF00FF00FF00FF00FF00FF00FF00FF0046
:10428000FF00FF00FF00FF00FF00FF00FF00FF0036
:10429000FF00FF00FF00FF00FF00FF00FF00FF0026
:1042A000FF00FF00FF00FF00FF00FF00FF00FF0016
:1042B000FF00FF00FF00FF00FF00FF00FF00FF0006
:1042C000FF00FF00FF00FF00FF00FF00FF00FF00F6
:1042D000FF00FF00FF00FF00FF00FF00FF00FF00E6
:1042E000FF00FF00FF00FF00FF00FF00FF00FF00D6
:1042F000FF00FF00FF00FF00FF00FF00FF00FF00C6
:10430000FF00FF00FF00FF00FF00FF00FF00FF00B5
:10431000FF00FF00FF00FF00FF00FF00FF00FF00A5
:10432000FF00FF00FF00FF00FF00FF00FF00FF0095
:10433000FF00FF00FF00FF00FF00FF00FF00FF0085
:10434000FF00FF00FF00FF00FF00FF00FF00FF0075
:10435000FF00FF00FF00FF00FF00FF00FF00FF0065
:10436000FF00FF00FF00FF00FF00FF00FF00FF0055
:10437000FF00FF00FF00FF00FF00FF00FF00FF0045
:10438000FF00FF00FF00FF00FF00FF00FF00FF0035
:10439000FF00FF00FF00FF00FF00FF00FF00FF0025
:1043A000FF00FF00FF00FF00FF00FF00FF00FF0015
:1043B000FF00FF00FF00FF00FF00FF00FF00FF0005
:1043C000FF00FF00FF00FF00FF00FF00FF00FF00F5
:1043D000FF00FF00FF00FF00FF00FF00FF00FF00E5
:1043E000FF00FF00FF00FF00FF00FF00FF00FF00D5
:1043F000FF00FF00FF00FF00FF00FF00FF00FF00C5
:00000001FF
